:020000040000FA
:100000000C9462000C948A000C948A000C948A0070
:100010000C948A000C948A000C948A000C948A0038
:100020000C948A000C948A000C948A000C948A0028
:100030000C948A000C948A000C948A000C948A0018
:100040000C9454070C948A000C94C4070C949E07DB
:100050000C948A000C948A000C948A000C948A00F8
:100060000C948A000C948A000000000024002700F1
:100070002A0000000000250028002B0000000008D6
:10008000000201000003040700000000000000005F
:1000900000000000230026002900040404040404D6
:1000A0000404020202020202030303030303010227
:1000B00004081020408001020408102001020408F6
:1000C0001020F60711241FBECFEFD8E0DEBFCDBF52
:1000D00011E0A0E0B1E0ECE0F9E102C005900D9282
:1000E000AA37B107D9F722E0AAE7B1E001C01D9213
:1000F000A233B207E1F710E0C2E6D0E004C02197D6
:10010000FE010E947E0CC136D107C9F70E94430848
:100110000C94840C0C940000CF92DF92EF92FF922B
:10012000CF93DF93B0912702A0E08111AB2F809194
:10013000280290E0880F991FAC0140575F4FC09094
:100140002D02D0902E02E0902F02F090300230E08D
:1001500020E0FA01C591D491E881B90190E080E0F6
:10016000EB23EA130AC02F5F3F4F6C157D058E0508
:100170009F0578F36FEF7FEFCB01DF91CF91FF9079
:10018000EF90DF90CF900895CF93DF9390E0FC0144
:10019000E255FF4F249186569F4FFC01849188239E
:1001A000D1F090E0880F991FFC01E859FF4FA5910D
:1001B000B491FC01EE58FF4FC591D491623071F4B7
:1001C0009FB7F8943C91822F809583238C93E8818C
:1001D0002E2B28839FBFDF91CF9108958FB7F8947E
:1001E000EC912E2B2C938FBFF6CF3FB7F8948091D4
:1001F0007B0190917C01A0917D01B0917E0126B59B
:10020000A89B05C02F3F19F00196A11DB11D3FBF4E
:10021000BA2FA92F982F8827BC01CD01620F711D1D
:10022000811D911D42E0660F771F881F991F4A9517
:10023000D1F708958F929F92AF92BF92CF92DF92A3
:10024000EF92FF924B015C010E94F5006B017C0173
:100250000E94F5006C197D098E099F09683E734064
:1002600081059105A8F321E0821A9108A108B1083F
:1002700088EEC80E83E0D81EE11CF11C81149104A5
:10028000A104B10429F7FF90EF90DF90CF90BF90C9
:10029000AF909F908F9008958F929F92AF92BF9250
:1002A000EF92FF920F931F93CF93DF93CDB7DEB7FB
:1002B000C054D1400FB6F894DEBF0FBECDBF2FB7EC
:1002C000F89480917F0190918001A0918101B0917B
:1002D00082012FBF4091290250912A0260912B0286
:1002E00070912C028C019D01041B150B260B370B02
:1002F000B901A801403D574061057105A0F4809106
:100300003102C05CDE4F0FB6F894DEBF0FBECDBF2A
:10031000DF91CF911F910F91FF90EF90BF90AF9021
:100320009F908F9008958093290290932A02A09322
:100330002B02B0932C0210922402109223021092EE
:100340002202109221021092200262E08091250286
:100350000E94C40061E070E080E090E00E941A0119
:1003600061E0809125020E94C4008091250290E006
:10037000FC01E458FF4F2491FC01E255FF4F3491FA
:10038000FC01E656FF4FE491EE23D9F0222359F009
:10039000233009F442C008F035C0213009F443C0CD
:1003A000223009F444C0F0E0EE0FFF1FEE58FF4F7B
:1003B000A591B4918FB7F894EC9130953E233C937E
:1003C0008FBF809126028551823008F03DC08BE2BC
:1003D00091E10197F1F762E0809125020E94C4004B
:1003E0008BE990E00197F1F7F89480E00E948C008F
:1003F0006F3F7F4F8F4F9F4F71F51092310278946E
:1004000080E07FCF2730B1F02830D1F0243009F0E0
:10041000CACF809180008F7D03C0809180008F774C
:1004200080938000C0CF84B58F7784BDBCCF84B566
:100430008F7DFBCF8091B0008F778093B000B3CFDA
:100440008091B0008F7DF9CF64E170E080E090E0B2
:100450000E941A01C0CF81E00E948C006F3F7F4F45
:100460008F4F9F4F51F2CE0101967C015E019FEBB1
:10047000A91A9EEFB90A870180E00E948C00F8015A
:10048000608371838283938381E00E948C00F801F2
:100490006483758386839783085F1F4F0A151B0546
:1004A00059F7789430E020E0F70180809180A280B5
:1004B000B3804481558166817781FFEF8F169F0657
:1004C000AF06BF0631F04F3F0FEF500760077007D0
:1004D00019F41092310294CFF90183E0F595E79574
:1004E0008A95E1F7E05EFD4F8081880F84169506BE
:1004F000A606B70618F180832F5F3F4F18E0E10E84
:10050000F11C2832310581F640912402209120020D
:1005100080912102280F3327331F80912202280F58
:10052000311D80912302820F932F911D9927481727
:10053000190679F681E080933102E3CE8160DBCF4A
:10054000CF92DF92EF92FF92CF93DF93C82F0E945A
:100550004C01882349F0809126028B3028F08D30A1
:1005600040F085518230C0F160E070E080EC9FE7A0
:100570002CC0D09122026D2F70E090E080E00E94AC
:10058000D80A6B017C01609123026F7070E090E0EB
:1005900080E00E94DA0A2DEC3CEC4CEC5DE30E941A
:1005A0008F0BA70196010E94C609D7FD9058CC2356
:1005B00061F026E636E646EE5FE30E948F0B20E010
:1005C00030E040E052E40E94C609DF91CF91FF90F5
:1005D000EF90DF90CF900895D09122026D2F70E0C0
:1005E000762F662766277F7780912302682B90E01D
:1005F00080E00E94D80A2DEC3CEC4CEC5DE30E94BC
:100600008F0BD3CFAF92BF92CF92DF92EF92FF9238
:100610000F931F93CF93DF936C017B018B01040F2A
:10062000151FEB015E01AE18BF08C017D10759F0C6
:100630006991D601ED91FC910190F081E02DC60108
:100640000995892B79F7C501DF91CF911F910F9102
:10065000FF90EF90DF90CF90BF90AF900895FC0196
:10066000538D448D252F30E0842F90E0821B930B17
:10067000541710F0CF96089501970895FC01918DBD
:10068000828D981761F0A28DAE0FBF2FB11D5D96C0
:100690008C91928D9F5F9F73928F90E008958FEF62
:1006A0009FEF0895FC01918D828D981731F0828D16
:1006B000E80FF11D858D90E008958FEF9FEF08956D
:1006C000FC01918D228D892F90E0805C9F4F821BD1
:1006D00091098F739927089583E891E00E94600340
:1006E00021E0892B09F420E0822F089580E090E03A
:1006F000892B29F00E946C0381110C94000008954D
:10070000FC01A48DA80FB92FB11DA35ABF4F2C9186
:10071000848D90E001968F739927848FA689B7897D
:100720002C93A089B1898C91837080648C93938D74
:10073000848D981306C00288F389E02D80818F7D17
:1007400080830895EF92FF920F931F93CF93DF93CF
:10075000EC0181E0888F9B8D8C8D98131AC0E889FD
:10076000F989808185FF15C09FB7F894EE89FF89CC
:100770006083E889F98980818370806480839FBF6A
:1007800081E090E0DF91CF911F910F91FF90EF906A
:100790000895F62E0B8D10E00F5F1F4F0F7311277A
:1007A000E02E8C8D8E110CC00FB607FCFACFE889B5
:1007B000F989808185FFF5CFCE010E948003F1CFBA
:1007C000EB8DEC0FFD2FF11DE35AFF4FF0829FB729
:1007D000F8940B8FEA89FB8980818062CFCFCF9319
:1007E000DF93EC01888D8823B9F0AA89BB89E88959
:1007F000F9898C9185FD03C0808186FD0DC00FB6FF
:1008000007FCF7CF8C9185FFF2CF808185FFEDCF7C
:10081000CE010E948003E9CFDF91CF910895FC01C2
:1008200001900020E9F73197AF01481B590BBC013B
:1008300083E891E00C9402038F929F92AF92BF9253
:100840000F931F93CF93DF93CDB7DEB7A1970FB66A
:10085000F894DEBF0FBECDBF19A2423008F44AE0C3
:100860008E010F5D1F4F842E912CB12CA12CA50160
:1008700094010E945C0CE62FB901CA01EA30F4F43D
:10088000E05DD801EE938D01232B242B252B79F7E6
:1008900090E080E0109719F0CD010E940F04A1961E
:1008A0000FB6F894DEBF0FBECDBFDF91CF911F9181
:1008B0000F91BF90AF909F908F900895E95CE1CF2A
:1008C0000C940F044F925F926F927F928F929F923F
:1008D000AF92BF92CF92DF92EF92FF920F931F934E
:1008E000CF936B017C01742EAC019B010E94420CE2
:1008F000882399F082E191E0CF911F910F91FF90B1
:10090000EF90DF90CF90BF90AF909F908F907F90AF
:100910006F905F904F900C940F0446015701E8943C
:10092000B7F82FEF3FEF4FE75FE7C501B4010E9433
:10093000420C81110DC02FEF3FEF4FE75FE7C5017C
:10094000B4010E94320A18161CF486E191E0D4CF5B
:100950002FEF3FEF4FE75FE4C701B6010E948A0B1C
:1009600018161CF48AE191E0C7CF2FEF3FEF4FE755
:100970005FECC701B6010E94320A87FDF3CF20E089
:1009800030E0A901C701B6010E94320A10E000E080
:1009900087FF0AC06DE283E891E00E94A2038C0108
:1009A000F7FAF094F7F8F094C0E060E070E080E0CF
:1009B0009FE37C1641F020E030E040E251E40E94E9
:1009C000370ACF5FF6CFA70196010E94C6092B0117
:1009D0003C010E94A90A4B015C014AE00E941C04F0
:1009E0007C01E00EF11ECC23C1F1C501B4010E94CF
:1009F000D80A9B01AC01C301B2010E94C5094B0199
:100A00005C016EE283E891E00E94A203E80EF91E09
:100A1000C15018F120E030E040E251E4C501B401DA
:100A20000E948F0B2B013C010E94A90A4B01B12CA3
:100A3000A12C4AE0C501B4010E941C04E80EF91E75
:100A4000C501B4010E94D80A9B01AC01C301B201E7
:100A50000E94C5094B015C01DBCFC701CF911F91FB
:100A60000F91FF90EF90DF90CF90BF90AF909F904D
:100A70008F907F906F905F904F9008954F925F920C
:100A80006F927F928F929F92AF92BF92CF92DF929E
:100A9000EF92FF920F93CF93DF93CDB7DEB72897F6
:100AA0000FB6F894DEBF0FBECDBF6B017C014901CC
:100AB0005A0101110EC026E636E646EE5FE30E94BB
:100AC0008F0B20E030E040E052E40E94C6096B0149
:100AD0007C0120E030E048E852E4C701B6010E9402
:100AE000C5092AE939E949E95FE30E948F0B2B0127
:100AF0003C0120E030E044E752E4C701B6010E9427
:100B0000C6099B01AC01C301B2010E94C6092B01B9
:100B10003C0122E133E840EC5DE3C501B4010E94F1
:100B20008F0B9B01AC01C301B2010E94C60920E0FA
:100B300030E040E05FE30E948F0B2B013C0120E09E
:100B400030E04EE952E40E948A0B18160CF023C1E3
:100B5000A7019601C701B6010E948F0B2B013C0132
:100B6000A5019401C501B4010E948F0B6D837E83A2
:100B70008F83988721E133E243E050E4C701B60157
:100B80000E948F0B29E134E849E252E40E94C50932
:100B900069837A838B839C8326E13BE442E251E4C0
:100BA000C501B4010E948F0B9B01AC0169817A8160
:100BB0008B819C810E94C60969837A838B839C8385
:100BC00028E436E246E65EEBC701B6010E948F0BD1
:100BD000A50194010E948F0B9B01AC0169817A8170
:100BE0008B819C810E94C60969837A838B839C8355
:100BF00020EE3FE040EE5BEBC301B2010E948F0BA1
:100C00009B01AC0169817A818B819C810E94C6091C
:100C100069837A838B839C8328EF37E840E65DEB1A
:100C20006D817E818F8198850E948F0B9B01AC0125
:100C300069817A818B819C810E94C60969837A834C
:100C40008B839C832CEA3DE041EA5AE3C301B20165
:100C50000E948F0BA50194010E948F0B9B01AC0198
:100C600069817A818B819C810E94C60969837A831C
:100C70008B839C8328EC3FE84FE55AE3C701B6011C
:100C80000E948F0B2D813E814F8158850E948F0BD2
:100C90009B01AC0169817A818B819C810E94C6098C
:100CA00069837A838B839C8321EF3BE845E056EB95
:100CB000C301B2010E948F0B2D813E814F81588567
:100CC0000E948F0B9B01AC0169817A818B819C8191
:100CD0000E94C6092B013C0120E030E040E551E4D0
:100CE000C501B4010E94320A87FF88C020E030E0CD
:100CF00040EA52E4C701B6010E948A0B87FD7EC01C
:100D000020E030E040EE52E4C701B6010E94320A12
:100D100018160CF4BDC0A501940160E070E080E5F8
:100D200091E40E94C50920E030E040E85EE30E94C3
:100D30008F0B4B015C0120E030E04EEB52E4C70129
:100D4000B6010E94C5096B017C0120E030E0A901D9
:100D50000E948A0B18160CF048C0A701960160E0AB
:100D600070E088E891E40E94C5092EE33DEE40E77B
:100D70005DE30E948F0B0E94020C9B01AC01C50138
:100D8000B4010E948F0B9B01AC01C301B2010E9410
:100D9000C5092B013C01011110C020E030E040E00A
:100DA00052E4C301B2010E94C50926E838E34EE0CF
:100DB0005FE30E948F0B2B013C01C301B201289617
:100DC0000FB6F894DEBF0FBECDBFDF91CF910F916C
:100DD000FF90EF90DF90CF90BF90AF909F908F905B
:100DE0007F906F905F904F90089520E030E048E84A
:100DF00051E4C701B6010E94C609B7CF20E030E038
:100E00004AEA52E4C501B4010E948A0B18161CF686
:100E100020E030E040EA52E4C701B6010E948A0BAC
:100E200087FDB9CF20E030E04EEA52E4C701B601B9
:100E30000E94320A18160CF4AECF20E030E04AEAE5
:100E400052E4C501B4010E94C5092DEC3CEC4CEC08
:100E50005DE30E948F0B4B015C01A701960160E0EE
:100E600070E08EEA92E40E94C5092DEC3CEC4CE463
:100E70005EE30E948F0B9B01AC01C501B4010E948F
:100E80008F0B9B01AC01C301B2010E94C60981CF47
:100E900020E030E04AEA52E4C501B4010E948A0B26
:100EA00018160CF4BFCF77CF1F920F920FB60F9288
:100EB00011242F933F938F939F93AF93BF93809170
:100EC0007F0190918001A0918101B09182013091C8
:100ED0007A0123E0230F2D3758F50196A11DB11D8E
:100EE00020937A0180937F0190938001A0938101E8
:100EF000B093820180917B0190917C01A0917D0152
:100F0000B0917E010196A11DB11D80937B0190934C
:100F10007C01A0937D01B0937E01BF91AF919F9121
:100F20008F913F912F910F900FBE0F901F901895AA
:100F300026E8230F0296A11DB11DD2CF1F920F925A
:100F40000FB60F9211242F933F934F935F936F939C
:100F50007F938F939F93AF93BF93EF93FF9383E818
:100F600091E00E948003FF91EF91BF91AF919F911B
:100F70008F917F916F915F914F913F912F910F9042
:100F80000FBE0F901F9018951F920F920FB60F92E1
:100F900011242F938F939F93EF93FF93E0919301ED
:100FA000F09194018081E0919901F0919A0182FD84
:100FB0001BC0908180919C018F5F8F7320919D0158
:100FC000821741F0E0919C01F0E0ED57FE4F958FC4
:100FD00080939C01FF91EF919F918F912F910F90A2
:100FE0000FBE0F901F9018958081F4CFE3E8F1E0D9
:100FF0001382128288EE93E0A0E0B0E084839583B0
:10100000A683B78384E091E09183808385EC90E0B0
:101010009587848784EC90E09787868780EC90E0C2
:10102000918B808B81EC90E0938B828B82EC90E0B3
:10103000958B848B86EC90E0978B868B118E128E2D
:10104000138E148EA0E2B2E082E015968C93159771
:1010500086E116968C931697E0EBF0E0E4911796F4
:10106000EC931797ECE9F0E0E4911896EC9318975D
:1010700040E85EE360E070E01D964D935D936D93F4
:101080007C9350970895CF93DF93CDB7DEB7289721
:101090000FB6F894DEBF0FBECDBF789484B58260E2
:1010A00084BD84B5816084BD85B5826085BD85B50C
:1010B000816085BD80916E00816080936E0010928A
:1010C0008100809181008260809381008091810005
:1010D0008160809381008091800081608093800096
:1010E0008091B10084608093B1008091B0008160F4
:1010F0008093B00080917A00846080937A00809120
:101100007A00826080937A0080917A008160809377
:101110007A0080917A00806880937A001092C100F2
:10112000E0919301F091940182E08083E0918F013E
:10113000F09190011082E0919101F09192018FEC79
:10114000808310929B01E0919701F091980186E0D5
:101150008083E0919501F091960180818061808388
:10116000E0919501F0919601808188608083E09103
:101170009501F0919601808180688083E0919501CE
:10118000F091960180818F7D808362E080912502BD
:101190000E94C4002FB7F89480917F019091800144
:1011A000A0918101B09182012FBF805D9740A1097C
:1011B000B1098093290290932A02A0932B02B09345
:1011C0002C0260ED77E080E090E00E941A010E941E
:1011D0004C01882351F0809126028B3030F08D3005
:1011E00058F08551823008F45CC0C12CD12C80ECC1
:1011F000E82E8FE7F82E1EC06091210270E090E08B
:1012000080E00E94DA0A2DEC3CEC4CEC5DE30E949D
:101210008F0B6B017C016091200270E090E080E018
:101220000E94DA0A9B01AC01C701B6010E94C609FF
:101230006B017C0180E00E94A0022B013C0181E057
:101240000E94A0024B015C01A7019601C701B601F3
:101250000E94420C811110C0A3019201C301B2018E
:101260000E94420C811108C0A5019401C501B4017E
:101270000E94420C882339F18EE191E00E940F0414
:101280008EE391E00E940F0480E090E0892B09F446
:1012900098CF0E946C03882309F493CF0E9400002A
:1012A00090CF6091200270912102762767277627E0
:1012B00090E080E00E94D80A2DEC3CEC4CEC5DE321
:1012C0000E948F0BB5CF01E0A7019601C501B401C3
:1012D0000E943E0569837A838B839C8300E0A7018B
:1012E0009601C301B2010E943E056D837E838F8308
:1012F000988781E491E00E94600442E0C701B60152
:101300000E9462048CE491E00E94600480E591E018
:101310000E94600442E0C301B2010E9462048EE5B3
:1013200091E00E94600482E691E00E94600442E045
:10133000C501B4010E9462048EE591E00E94600440
:1013400087E691E00E9460048AE691E00E946004D2
:1013500042E06D817E818F8198850E9462048EE5D6
:1013600091E00E94600482E691E00E94600442E005
:1013700069817A818B819C810E9462048EE591E073
:101380000E94600487E791E079CF5058BB27AA27D5
:101390000E94DD090C94500B0E94420B38F00E9411
:1013A000490B20F039F49F3F19F426F40C943F0BBD
:1013B0000EF4E095E7FB0C94390BE92F0E94610BCA
:1013C00058F3BA17620773078407950720F079F47A
:1013D000A6F50C94830B0EF4E0950B2EBA2FA02DDE
:1013E0000B01B90190010C01CA01A0011124FF27D2
:1013F000591B99F0593F50F4503E68F11A16F040CD
:10140000A22F232F342F4427585FF3CF46953795CB
:101410002795A795F0405395C9F77EF41F16BA0B90
:10142000620B730B840BBAF09150A1F0FF0FBB1F3E
:10143000661F771F881FC2F70EC0BA0F621F731F87
:10144000841F48F4879577956795B795F7959E3FE4
:1014500008F0B0CF9395880F08F09927EE0F979575
:10146000879508950E94150B08F481E008950E9465
:101470004B0A0C94500B0E94490B58F00E94420BEF
:1014800040F029F45F3F29F00C94390B51110C9472
:10149000840B0C943F0B0E94610B68F39923B1F30A
:1014A000552391F3951B550BBB27AA27621773078A
:1014B000840738F09F5F5F4F220F331F441FAA1F1E
:1014C000A9F335D00E2E3AF0E0E832D091505040DA
:1014D000E695001CCAF72BD0FE2F29D0660F771F88
:1014E000881FBB1F261737074807AB07B0E809F06E
:1014F000BB0B802DBF01FF2793585F4F3AF09E3FF3
:10150000510578F00C94390B0C94840B5F3FE4F395
:10151000983ED4F3869577956795B795F7959F5F35
:10152000C9F7880F911D9695879597F90895E1E081
:10153000660F771F881FBB1F621773078407BA07E0
:1015400020F0621B730B840BBA0BEE1F88F7E0953B
:1015500008950E94690B88F09F5798F0B92F99273A
:10156000B751B0F0E1F0660F771F881F991F1AF08E
:10157000BA95C9F714C0B13091F00E94830BB1E065
:1015800008950C94830B672F782F8827B85F39F064
:10159000B93FCCF3869577956795B395D9F73EF427
:1015A00090958095709561957F4F8F4F9F4F0895CF
:1015B000E89409C097FB3EF49095809570956195ED
:1015C0007F4F8F4F9F4F9923A9F0F92F96E9BB27A3
:1015D0009395F695879577956795B795F111F8CF1F
:1015E000FAF4BB0F11F460FF1BC06F5F7F4F8F4F8A
:1015F0009F4F16C0882311F096E911C0772321F080
:101600009EE8872F762F05C0662371F096E8862F17
:1016100070E060E02AF09A95660F771F881FDAF76E
:10162000880F9695879597F90895990F0008550F9B
:10163000AA0BE0E8FEEF16161706E807F907C0F058
:1016400012161306E407F50798F0621B730B840B60
:10165000950B39F40A2661F0232B242B252B21F43A
:1016600008950A2609F4A140A6958FEF811D811DDA
:10167000089597F99F6780E870E060E008959FEF14
:1016800080EC089500240A94161617061806090619
:10169000089500240A9412161306140605060895E8
:1016A000092E0394000C11F4882352F0BB0F40F470
:1016B000BF2B11F460FF04C06F5F7F4F8F4F9F4FB0
:1016C000089557FD9058440F551F59F05F3F71F032
:1016D0004795880F97FB991F61F09F3F79F0879599
:1016E0000895121613061406551FF2CF4695F1DF22
:1016F00008C0161617061806991FF1CF86957105B2
:10170000610508940895E894BB2766277727CB01E5
:1017100097F908950E94150B08F48FEF08950E9421
:10172000A20B0C94500B0E94420B38F00E94490B04
:1017300020F0952311F00C94390B0C943F0B1124DD
:101740000C94840B0E94610B70F3959FC1F3950F6D
:1017500050E0551F629FF001729FBB27F00DB11D35
:10176000639FAA27F00DB11DAA1F649F6627B00DC5
:10177000A11D661F829F2227B00DA11D621F739FAE
:10178000B00DA11D621F839FA00D611D221F749FBC
:101790003327A00D611D231F849F600D211D822F03
:1017A000762F6A2F11249F5750409AF0F1F088232A
:1017B0004AF0EE0FFF1FBB1F661F771F881F915057
:1017C0005040A9F79E3F510580F00C94390B0C94C2
:1017D000840B5F3FE4F3983ED4F386957795679545
:1017E000B795F795E7959F5FC1F7FE2B880F911D81
:1017F0009695879597F9089519F416F40C943F0B74
:101800000C94470C0E94690BB8F39923C9F3B6F303
:101810009F57550B87FF0E94550C0024A0E640EA15
:10182000900180585695979528F4805C660F771F35
:10183000881F20F026173707480730F4621B730B08
:10184000840B202931294A2BA6951794079420252B
:1018500031254A2758F7660F771F881F20F0261773
:101860003707480730F4620B730B840B200D311DD2
:10187000411DA09581F7B901842F9158880F969545
:10188000879508950E94150B880B990B08959F3F2B
:1018900031F0915020F4879577956795B795880F2B
:1018A000911D9695879597F9089591505040660F30
:1018B000771F881FD2F70895A1E21A2EAA1BBB1B1F
:1018C000FD010DC0AA1FBB1FEE1FFF1FA217B3070C
:1018D000E407F50720F0A21BB30BE40BF50B661F22
:1018E000771F881F991F1A9469F7609570958095E6
:1018F00090959B01AC01BD01CF010895EE0FFF1F34
:101900000590F491E02D0994F894FFCF00000000B9
:10191000A20302032F03EF0360033E0352036E6131
:101920006E00696E66006F7666004661696C65647C
:1019300020746F20726561642066726F6D20444868
:10194000542073656E736F7221000D0A0048756D27
:1019500069646974793A20002025200054656D700F
:10196000657261747572653A200020C2B000432030
:101970007C20004620004865617420696E646578AB
:061980003A2000460000C1
:107E0000112484B714BE81FFF0D085E080938100F7
:107E100082E08093C00088E18093C10086E0809377
:107E2000C20080E18093C4008EE0C9D0259A86E02C
:107E300020E33CEF91E0309385002093840096BBD3
:107E4000B09BFECF1D9AA8958150A9F7CC24DD24C4
:107E500088248394B5E0AB2EA1E19A2EF3E0BF2EE7
:107E6000A2D0813461F49FD0082FAFD0023811F036
:107E7000013811F484E001C083E08DD089C08234E0
:107E800011F484E103C0853419F485E0A6D080C0E4
:107E9000853579F488D0E82EFF2485D0082F10E0AE
:107EA000102F00270E291F29000F111F8ED06801E7
:107EB0006FC0863521F484E090D080E0DECF843638
:107EC00009F040C070D06FD0082F6DD080E0C81688
:107ED00080E7D80618F4F601B7BEE895C0E0D1E017
:107EE00062D089930C17E1F7F0E0CF16F0E7DF06D8
:107EF00018F0F601B7BEE89568D007B600FCFDCFD4
:107F0000A601A0E0B1E02C9130E011968C91119780
:107F100090E0982F8827822B932B1296FA010C0160
:107F200087BEE89511244E5F5F4FF1E0A038BF0790
:107F300051F7F601A7BEE89507B600FCFDCF97BE46
:107F4000E89526C08437B1F42ED02DD0F82E2BD052
:107F50003CD0F601EF2C8F010F5F1F4F84911BD097
:107F6000EA94F801C1F70894C11CD11CFA94CF0C13
:107F7000D11C0EC0853739F428D08EE10CD085E9AC
:107F80000AD08FE07ACF813511F488E018D01DD067
:107F900080E101D065CF982F8091C00085FFFCCF94
:107FA0009093C60008958091C00087FFFCCF809118
:107FB000C00084FD01C0A8958091C6000895E0E648
:107FC000F0E098E1908380830895EDDF803219F02E
:107FD00088E0F5DFFFCF84E1DECF1F93182FE3DFCA
:107FE0001150E9F7F2DF1F91089580E0E8DFEE27F6
:047FF000FF270994CA
:027FFE00040479
:00000001FF
