:020000040000FA
:100000000C9462000C947F000C947F000C947F0091
:100010000C947F000C947F000C947F000C947F0064
:100020000C947F000C947F000C947F000C947F0054
:100030000C947F000C947F000C947F000C947F0044
:100040000C9493020C947F000C947F000C947F001E
:100050000C947F000C947F000C947F000C947F0024
:100060000C947F000C947F00000000002400270007
:100070002A0000000000250028002B0004040404CE
:100080000404040402020202020203030303030342
:10009000010204081020408001020408102001021F
:1000A00004081020000000080002010000030407FB
:1000B00000000000000000000000000023002600F7
:1000C0002900210411241FBECFEFD8E0DEBFCDBF31
:1000D00021E0A0E0B1E001C01D92AB31B207E1F731
:1000E00010E0C2E6D0E004C02197FE010E94D805CE
:1000F000C136D107C9F70E94DD020C94DE050C94CD
:100100000000CF92DF92EF92FF92CF93DF93B091F6
:100110001001A0E08111AB2F8091110190E0880FB8
:10012000991FAC0148545F4FC0901601D090170141
:10013000E0901801F090190130E020E0FA01C5913B
:10014000D491E881B90190E080E0EB23EA130AC082
:100150002F5F3F4F6C157D058E059F0578F36FEF80
:100160007FEFCB01DF91CF91FF90EF90DF90CF90A9
:10017000089590E0FC01EC55FF4F2491FC01E057FD
:10018000FF4F3491FC01E458FF4FE491EE23C9F096
:10019000222339F0233001F1A8F4213019F1223063
:1001A00029F1F0E0EE0FFF1FEE58FF4FA591B4913B
:1001B0008FB7F894EC91611126C030953E233C93A3
:1001C0008FBF08952730A9F02830C9F0243049F7AF
:1001D000809180008F7D03C0809180008F77809315
:1001E0008000DFCF84B58F7784BDDBCF84B58F7D72
:1001F000FBCF8091B0008F778093B000D2CF8091F9
:10020000B0008F7DF9CF3E2BDACFCF93DF9390E014
:10021000FC01E057FF4F249184589F4FFC018491CB
:100220008823D1F090E0880F991FFC01E859FF4F17
:10023000A591B491FC01EE58FF4FC591D491623065
:1002400071F49FB7F8943C91822F809583238C930F
:10025000E8812E2B28839FBFDF91CF9108958FB720
:10026000F894EC912E2B2C938FBFF6CF3FB7F894D8
:100270008091010190910201A0910301B0910401CC
:1002800026B5A89B05C02F3F19F00196A11DB11DF1
:100290003FBFBA2FA92F982F8827BC01CD01620F2D
:1002A000711D811D911D42E0660F771F881F991FE8
:1002B0004A95D1F708958F929F92AF92BF92CF92B5
:1002C000DF92EF92FF924B015C010E9436016B01BD
:1002D0007C010E9436016C197D098E099F09683ED8
:1002E000734081059105A8F321E0821A9108A108C5
:1002F000B10888EEC80E83E0D81EE11CF11C811401
:100300009104A104B10429F7FF90EF90DF90CF9002
:10031000BF90AF909F908F900895CF92DF92EF9211
:10032000FF920F931F93CF93DF93CDB7DEB7C054E7
:10033000D1400FB6F894DEBF0FBECDBF2FB7F894F3
:100340008091050190910601A0910701B0910801EB
:100350002FBF4091120150911301609114017091CF
:1003600015018C019D01041B150B260B370BB901E0
:10037000A801403D57406105710590F480911A0134
:10038000C05CDE4F0FB6F894DEBF0FBECDBFDF916D
:10039000CF911F910F91FF90EF90DF90CF90089534
:1003A0008093120190931301A0931401B09315014F
:1003B00010920D0110920C0110920B0110920A0183
:1003C0001092090162E080910E010E94050161E036
:1003D00070E080E090E00E945B0161E080910E019E
:1003E0000E94050160E080910E010E94B900809199
:1003F0000F0185518230D8F48BE291E10197F1F73A
:1004000062E080910E010E9405018BE990E0019766
:10041000F1F7F89480E00E9481006F3F7F4F8F4F8B
:100420009F4F61F410921A01789480E0A9CF64E1A3
:1004300070E080E090E00E945B01E2CF81E00E94EA
:1004400081006F3F7F4F8F4F9F4F61F38E010F5F92
:100450001F4F6E018FEBC81A8EEFD80A780180E02B
:100460000E948100F701608371838283938381E01E
:100470000E948100F7016483758386839783F8E087
:10048000EF0EF11CEC14FD0451F7789430E020E0FD
:10049000F801C080D180E280F3804481558166817B
:1004A0007781FFEFCF16DF06EF06FF0631F04F3FF3
:1004B0008FEF58076807780719F410921A01B5CF23
:1004C000F90183E0F595E7958A95E1F7E75FFE4F3F
:1004D0008081880FC416D506E606F70610F18083E2
:1004E0002F5F3F4F085F1F4F2832310589F640913B
:1004F0000D012091090180910A01280F3327331F34
:1005000080910B01280F311D80910C01820F932FD8
:10051000911D99274817190681F681E080931A01E9
:100520002FCF8160DCCF1F920F920FB60F92112454
:100530002F933F938F939F93AF93BF938091050128
:1005400090910601A0910701B0910801309100013E
:1005500023E0230F2D3758F50196A11DB11D2093DF
:1005600000018093050190930601A0930701B093C9
:1005700008018091010190910201A0910301B091C5
:1005800004010196A11DB11D809301019093020108
:10059000A0930301B0930401BF91AF919F918F91FC
:1005A0003F912F910F900FBE0F901F90189526E846
:1005B000230F0296A11DB11DD2CF789484B582601D
:1005C00084BD84B5816084BD85B5826085BD85B5F7
:1005D000816085BD80916E00816080936E00109275
:1005E00081008091810082608093810080918100F0
:1005F0008160809381008091800081608093800081
:100600008091B10084608093B1008091B0008160DE
:100610008093B00080917A00846080937A0080910A
:100620007A00826080937A0080917A008160809362
:100630007A0080917A00806880937A001092C100DD
:1006400061E08DE00E94050161E08CE00E940501FF
:1006500062E080910E010E9405012FB7F89480910D
:10066000050190910601A0910701B09108012FBFEB
:10067000805D9740A109B109809312019093130105
:10068000A0931401B0931501C0E0D0E068E873E1D5
:1006900080E090E00E945B010E948D01882349F078
:1006A00080910F018B3028F08D3050F085518230D1
:1006B000D8F1812C912C20ECA22E2FE7B22E1EC057
:1006C00060910A0170E090E080E00E94B1042DEC9E
:1006D0003CEC4CEC5DE30E9442056B017C016091B7
:1006E000090170E090E080E00E94B1049B01AC0140
:1006F000C701B6010E9443044B015C010E948D01B9
:10070000882309F457C080910F018B3030F08D3071
:10071000E8F08551823008F467C0C12CD12C80EC00
:10072000E82E8FE7F82E36C06091090170910A011A
:1007300076276727762790E080E00E94AF042DECB3
:100740003CEC4CEC5DE30E944205D6CF10910B01CE
:10075000612F70E090E080E00E94AF046B017C01AB
:1007600060910C016F7070E090E080E00E94B10435
:100770002DEC3CEC4CEC5DE30E944205A701960198
:100780000E9443046B017C0117FF04C0F7FAF09448
:10079000F7F8F094A5019401C501B4010E94AF05DA
:1007A000811108C0A7019601C701B6010E94AF05DB
:1007B000882381F161E08CE00E94B90060ED77E070
:1007C00080E090E00E945B0160E08CE00E94B90054
:1007D00068EE73E080E090E00E945B01209709F4EE
:1007E00055CF0E94000052CF10910B01612F70E095
:1007F000762F662766277F7780910C01682B90E023
:1008000080E00E94AF042DEC3CEC4CEC5DE30E94D8
:100810004205B8CF20E030E044E352E4C701B6011E
:100820000E943D051816D4F661E08DE00E94B900E3
:1008300060ED77E080E090E00E945B0160E08DE099
:10084000C5CFA9E0B1E082E015968C93159786E1BB
:1008500016968C931697E2E9F0E0E4911796EC93E4
:100860001797EEE7F0E0E4911896EC93189740E8BC
:100870005EE360E070E01D964D935D936D937C9315
:10088000509708955058BB27AA270E945A040C94E9
:1008900003050E94F50438F00E94FC0420F039F4AE
:1008A0009F3F19F426F40C94F2040EF4E095E7FB54
:1008B0000C94EC04E92F0E94140558F3BA17620750
:1008C00073078407950720F079F4A6F50C94360594
:1008D0000EF4E0950B2EBA2FA02D0B01B90190015B
:1008E0000C01CA01A0011124FF27591B99F0593F9F
:1008F00050F4503E68F11A16F040A22F232F342FE7
:100900004427585FF3CF469537952795A795F04034
:100910005395C9F77EF41F16BA0B620B730B840B49
:10092000BAF09150A1F0FF0FBB1F661F771F881F01
:10093000C2F70EC0BA0F621F731F841F48F4879559
:1009400077956795B795F7959E3F08F0B0CF93954B
:10095000880F08F09927EE0F979587950895E894EA
:1009600009C097FB3EF490958095709561957F4FF7
:100970008F4F9F4F9923A9F0F92F96E9BB279395A5
:10098000F695879577956795B795F111F8CFFAF4B5
:10099000BB0F11F460FF1BC06F5F7F4F8F4F9F4FE6
:1009A00016C0882311F096E911C0772321F09EE844
:1009B000872F762F05C0662371F096E8862F70E0AA
:1009C00060E02AF09A95660F771F881FDAF7880F84
:1009D0009695879597F9089597F99F6780E870E055
:1009E00060E008959FEF80EC089500240A941616A5
:1009F000170618060906089500240A94121613060D
:100A0000140605060895092E0394000C11F488239A
:100A100052F0BB0F40F4BF2B11F460FF04C06F5FB6
:100A20007F4F8F4F9F4F089557FD9058440F551F8C
:100A300059F05F3F71F04795880F97FB991F61F060
:100A40009F3F79F087950895121613061406551FD7
:100A5000F2CF4695F1DF08C0161617061806991F43
:100A6000F1CF86957105610508940895E894BB2738
:100A700066277727CB0197F908950E94B40508F4FB
:100A80008FEF08950E9455050C9403050E94F5040C
:100A900038F00E94FC0420F0952311F00C94EC0433
:100AA0000C94F20411240C9437050E94140570F381
:100AB000959FC1F3950F50E0551F629FF001729F03
:100AC000BB27F00DB11D639FAA27F00DB11DAA1F12
:100AD000649F6627B00DA11D661F829F2227B00D5F
:100AE000A11D621F739FB00DA11D621F839FA00DEA
:100AF000611D221F749F3327A00D611D231F849F3A
:100B0000600D211D822F762F6A2F11249F57504090
:100B10009AF0F1F088234AF0EE0FFF1FBB1F661F0B
:100B2000771F881F91505040A9F79E3F510580F0D4
:100B30000C94EC040C9437055F3FE4F3983ED4F337
:100B4000869577956795B795F795E7959F5FC1F778
:100B5000FE2B880F911D9695879597F908950E9411
:100B6000B405880B990B0895990F0008550FAA0B2F
:100B7000E0E8FEEF16161706E807F907C0F01216B0
:100B80001306E407F50798F0621B730B840B950BB3
:100B900039F40A2661F0232B242B252B21F4089508
:100BA0000A2609F4A140A6958FEF811D811D0895A5
:100BB000EE0FFF1F0590F491E02D0994F894FFCFFC
:107E0000112484B714BE81FFF0D085E080938100F7
:107E100082E08093C00088E18093C10086E0809377
:107E2000C20080E18093C4008EE0C9D0259A86E02C
:107E300020E33CEF91E0309385002093840096BBD3
:107E4000B09BFECF1D9AA8958150A9F7CC24DD24C4
:107E500088248394B5E0AB2EA1E19A2EF3E0BF2EE7
:107E6000A2D0813461F49FD0082FAFD0023811F036
:107E7000013811F484E001C083E08DD089C08234E0
:107E800011F484E103C0853419F485E0A6D080C0E4
:107E9000853579F488D0E82EFF2485D0082F10E0AE
:107EA000102F00270E291F29000F111F8ED06801E7
:107EB0006FC0863521F484E090D080E0DECF843638
:107EC00009F040C070D06FD0082F6DD080E0C81688
:107ED00080E7D80618F4F601B7BEE895C0E0D1E017
:107EE00062D089930C17E1F7F0E0CF16F0E7DF06D8
:107EF00018F0F601B7BEE89568D007B600FCFDCFD4
:107F0000A601A0E0B1E02C9130E011968C91119780
:107F100090E0982F8827822B932B1296FA010C0160
:107F200087BEE89511244E5F5F4FF1E0A038BF0790
:107F300051F7F601A7BEE89507B600FCFDCF97BE46
:107F4000E89526C08437B1F42ED02DD0F82E2BD052
:107F50003CD0F601EF2C8F010F5F1F4F84911BD097
:107F6000EA94F801C1F70894C11CD11CFA94CF0C13
:107F7000D11C0EC0853739F428D08EE10CD085E9AC
:107F80000AD08FE07ACF813511F488E018D01DD067
:107F900080E101D065CF982F8091C00085FFFCCF94
:107FA0009093C60008958091C00087FFFCCF809118
:107FB000C00084FD01C0A8958091C6000895E0E648
:107FC000F0E098E1908380830895EDDF803219F02E
:107FD00088E0F5DFFFCF84E1DECF1F93182FE3DFCA
:107FE0001150E9F7F2DF1F91089580E0E8DFEE27F6
:047FF000FF270994CA
:027FFE00040479
:00000001FF
