:020000040000FA
:100000000C9462000C948A000C948A000C948A0070
:100010000C948A000C948A000C948A000C948A0038
:100020000C948A000C948A000C948A000C948A0028
:100030000C948A000C948A000C948A000C948A0018
:100040000C94AB030C948A000C941B040C94F503E1
:100050000C948A000C948A000C948A000C948A00F8
:100060000C948A000C948A000000000024002700F1
:100070002A0000000000250028002B0000000008D6
:10008000000201000003040700000000000000005F
:1000900000000000230026002900040404040404D6
:1000A0000404020202020202030303030303010227
:1000B00004081020408001020408102001020408F6
:1000C00010204D0411241FBECFEFD8E0DEBFCDBFFE
:1000D00011E0A0E0B1E0ECE6FFE002C005900D9277
:1000E000A231B107D9F721E0A2E1B1E001C01D9230
:1000F000AA3CB207E1F710E0C2E6D0E004C02197C5
:10010000FE010E94AE07C136D107C9F70E949A04CA
:100110000C94B4070C940000CF92DF92EF92FF9200
:10012000CF93DF93B091BF01A0E08111AB2F8091FD
:10013000C00190E0880F991FAC0140575F4FC090FD
:10014000C501D090C601E090C701F090C80130E031
:1001500020E0FA01C591D491E881B90190E080E0F6
:10016000EB23EA130AC02F5F3F4F6C157D058E0508
:100170009F0578F36FEF7FEFCB01DF91CF91FF9079
:10018000EF90DF90CF90089590E0FC01E458FF4F8E
:100190002491FC01E255FF4F3491FC01E656FF4FDC
:1001A000E491EE23C9F0222339F0233001F1A8F4C1
:1001B000213019F1223029F1F0E0EE0FFF1FEE5847
:1001C000FF4FA591B4918FB7F894EC91611126C0BF
:1001D00030953E233C938FBF08952730A9F02830F7
:1001E000C9F0243049F7809180008F7D03C0809151
:1001F00080008F7780938000DFCF84B58F7784BDB8
:10020000DBCF84B58F7DFBCF8091B0008F7780935B
:10021000B000D2CF8091B0008F7DF9CF3E2BDACFE6
:10022000CF93DF9390E0FC01E255FF4F2491865677
:100230009F4FFC0184918823D1F090E0880F991F93
:10024000FC01E859FF4FA591B491FC01EE58FF4F16
:10025000C591D491623071F49FB7F8943C91822F8C
:10026000809583238C93E8812E2B28839FBFDF9179
:10027000CF9108958FB7F894EC912E2B2C938FBFCC
:10028000F6CF3FB7F8948091130190911401A0919B
:100290001501B091160126B5A89B05C02F3F19F096
:1002A0000196A11DB11D3FBFBA2FA92F982F8827F6
:1002B000BC01CD01620F711D811D911D42E0660FD1
:1002C000771F881F991F4A95D1F708958F929F92A3
:1002D000AF92BF92CF92DF92EF92FF924B015C01FF
:1002E0000E9441016B017C010E9441016C197D0952
:1002F0008E099F09683E734081059105A8F321E0AE
:10030000821A9108A108B10888EEC80E83E0D81EB1
:10031000E11CF11C81149104A104B10429F7FF90A0
:10032000EF90DF90CF90BF90AF909F908F90089507
:10033000CF92DF92EF92FF920F931F93CF93DF93B1
:10034000CDB7DEB7C054D1400FB6F894DEBF0FBEB4
:10035000CDBF2FB7F8948091170190911801A0910B
:100360001901B0911A012FBF4091C1015091C201F2
:100370006091C3017091C4018C019D01041B150B98
:10038000260B370BB901A801403D574061057105A7
:1003900090F48091C901C05CDE4F0FB6F894DEBFC7
:1003A0000FBECDBFDF91CF911F910F91FF90EF90C6
:1003B000DF90CF9008958093C1019093C201A093E4
:1003C000C301B093C4011092BC011092BB01109202
:1003D000BA011092B9011092B80162E08091BD019A
:1003E0000E94100161E070E080E090E00E946601F0
:1003F00061E08091BD010E94100160E08091BD012B
:100400000E94C4008091BE0185518230D8F48BE2F5
:1004100091E10197F1F762E08091BD010E94100126
:100420008BE990E00197F1F7F89480E00E948C004E
:100430006F3F7F4F8F4F9F4F61F41092C9017894A7
:1004400080E0A9CF64E170E080E090E00E94660166
:10045000E2CF81E00E948C006F3F7F4F8F4F9F4F14
:1004600061F38E010F5F1F4F6E018FEBC81A8EEF85
:10047000D80A780180E00E948C00F70160837183C4
:100480008283938381E00E948C00F70164837583EB
:1004900086839783F8E0EF0EF11CEC14FD0451F70E
:1004A000789430E020E0F801C080D180E280F380D1
:1004B0004481558166817781FFEFCF16DF06EF0615
:1004C000FF0631F04F3F8FEF58076807780719F4A0
:1004D0001092C901B5CFF90183E0F595E7958A95AA
:1004E000E1F7E854FE4F8081880FC416D506E60672
:1004F000F70610F180832F5F3F4F085F1F4F2832B0
:10050000310589F64091BC012091B8018091B90173
:10051000280F3327331F8091BA01280F311D809196
:10052000BB01820F932F911D99274817190681F659
:1005300081E08093C9012FCF8160DCCFAF92BF9261
:10054000CF92DF92EF92FF920F931F93CF93DF939F
:100550006C017B018B01040F151FEB015E01AE18CE
:10056000BF08C017D10759F06991D601ED91FC91F0
:100570000190F081E02DC6010995892B79F7C5011D
:10058000DF91CF911F910F91FF90EF90DF90CF906F
:10059000BF90AF900895FC01538D448D252F30E01E
:1005A000842F90E0821B930B541710F0CF96089580
:1005B00001970895FC01918D828D981761F0A28DAD
:1005C000AE0FBF2FB11D5D968C91928D9F5F9F7373
:1005D000928F90E008958FEF9FEF0895FC01918D29
:1005E000828D981731F0828DE80FF11D858D90E096
:1005F00008958FEF9FEF0895FC01918D228D892F33
:1006000090E0805C9F4F821B91098F73992708951A
:100610008BE191E00E94FC0221E0892B09F420E0AB
:10062000822F089580E090E0892B29F00E94080332
:1006300081110C9400000895FC01A48DA80FB92F1E
:10064000B11DA35ABF4F2C91848D90E001968F73FA
:100650009927848FA689B7892C93A089B1898C9119
:10066000837080648C93938D848D981306C0028868
:10067000F389E02D80818F7D80830895EF92FF9232
:100680000F931F93CF93DF93EC0181E0888F9B8DB5
:100690008C8D98131AC0E889F989808185FF15C06F
:1006A0009FB7F894EE89FF896083E889F989808192
:1006B0008370806480839FBF81E090E0DF91CF9161
:1006C0001F910F91FF90EF900895F62E0B8D10E083
:1006D0000F5F1F4F0F731127E02E8C8D8E110CC0F2
:1006E0000FB607FCFACFE889F989808185FFF5CF3D
:1006F000CE010E941C03F1CFEB8DEC0FFD2FF11DFD
:10070000E35AFF4FF0829FB7F8940B8FEA89FB8979
:1007100080818062CFCFCF93DF93EC01888D8823D7
:10072000B9F0AA89BB89E889F9898C9185FD03C054
:10073000808186FD0DC00FB607FCF7CF8C9185FF39
:10074000F2CF808185FFEDCFCE010E941C03E9CF5F
:10075000DF91CF9108951F920F920FB60F9211243F
:100760002F933F938F939F93AF93BF9380911701E4
:1007700090911801A0911901B0911A0130911201C4
:1007800023E0230F2D3758F50196A11DB11D2093AD
:1007900012018093170190931801A0931901B0934F
:1007A0001A018091130190911401A0911501B0914B
:1007B00016010196A11DB11D8093130190931401A0
:1007C000A0931501B0931601BF91AF919F918F91A6
:1007D0003F912F910F900FBE0F901F90189526E814
:1007E000230F0296A11DB11DD2CF1F920F920FB6FB
:1007F0000F9211242F933F934F935F936F937F93A7
:100800008F939F93AF93BF93EF93FF938BE191E00F
:100810000E941C03FF91EF91BF91AF919F918F9127
:100820007F916F915F914F913F912F910F900FBEEC
:100830000F901F9018951F920F920FB60F921124D0
:100840002F938F939F93EF93FF93E0912B01F09160
:100850002C018081E0913101F091320182FD1BC0B9
:100860009081809134018F5F8F73209135018217C1
:1008700041F0E0913401F0E0E55EFE4F958F80930A
:100880003401FF91EF919F918F912F910F900FBEA7
:100890000F901F9018958081F4CFEBE1F1E0138267
:1008A000128288EE93E0A0E0B0E084839583A68373
:1008B000B78384E091E09183808385EC90E0958715
:1008C000848784EC90E09787868780EC90E0918B1A
:1008D000808B81EC90E0938B828B82EC90E0958B07
:1008E000848B86EC90E0978B868B118E128E138E04
:1008F000148EA8EBB1E082E015968C93159786E1F3
:1009000016968C931697E0EBF0E0E4911796EC9333
:100910001797ECE9F0E0E4911896EC93189740E80B
:100920005EE360E070E01D964D935D936D937C9364
:1009300050970895789484B5826084BD84B58160B1
:1009400084BD85B5826085BD85B5816085BD80919A
:100950006E00816080936E00109281008091810012
:10096000826080938100809181008160809381000A
:10097000809180008160809380008091B1008460CC
:100980008093B1008091B00081608093B00080912D
:100990007A00846080937A0080917A0082608093EC
:1009A0007A0080917A00816080937A0080917A0049
:1009B000806880937A001092C100E0912B01F09141
:1009C0002C0182E08083E0912701F09128011082C0
:1009D000E0912901F0912A018FEC8083109233017C
:1009E000E0912F01F091300186E08083E0912D01AC
:1009F000F0912E01808180618083E0912D01F09142
:100A00002E01808188608083E0912D01F0912E017C
:100A1000808180688083E0912D01F0912E0180819A
:100A20008F7D808361E08DE00E94100161E08CE0A9
:100A30000E94100162E08091BD010E9410012FB759
:100A4000F8948091170190911801A0911901B0912B
:100A50001A012FBF805D9740A109B1098093C101A0
:100A60009093C201A093C301B093C401C0E0D0E051
:100A700060ED77E080E090E00E9466010E949801BE
:100A8000882349F08091BE018B3028F08D3050F0E2
:100A900085518230D8F1812C912C20ECA22E2FE7A9
:100AA000B22E1EC06091B90170E090E080E00E941B
:100AB00087062DEC3CEC4CEC5DE30E9418076B01C3
:100AC0007C016091B80170E090E080E00E948706B0
:100AD0009B01AC01C701B6010E9419064B015C01E4
:100AE0000E949801882309F457C08091BE018B3081
:100AF00030F08D30E8F08551823008F46CC0C12CA4
:100B0000D12C80ECE82E8FE7F82E36C06091B8012A
:100B10007091B90176276727762790E080E00E94E0
:100B200085062DEC3CEC4CEC5DE30E941807D6CF1B
:100B30001091BA01612F70E090E080E00E9485067C
:100B40006B017C016091BB016F7070E090E080E010
:100B50000E9487062DEC3CEC4CEC5DE30E941807EC
:100B6000A70196010E9419066B017C0117FF04C0C2
:100B7000F7FAF094F7F8F094A5019401C501B401D7
:100B80000E948507811108C0A7019601C701B6011F
:100B90000E9485078823A9F161E08CE00E94C400CF
:100BA00060ED77E080E090E00E94660160E08CE01C
:100BB0000E94C40068EE73E080E090E00E9466014D
:100BC000209709F455CF0E940803882309F450CFD9
:100BD0000E9400004DCF1091BA01612F70E0762F76
:100BE000662766277F778091BB01682B90E080E0C5
:100BF0000E9485062DEC3CEC4CEC5DE30E9418074E
:100C0000B3CF20E030E044E352E4C701B6010E94D4
:100C100013071816ACF661E08DE00E94C40060ED89
:100C200077E080E090E00E94660160E08DE0C0CF58
:100C30005058BB27AA270E9430060C94D9060E9460
:100C4000CB0638F00E94D20620F039F49F3F19F409
:100C500026F40C94C8060EF4E095E7FB0C94C2064B
:100C6000E92F0E94EA0658F3BA1762077307840750
:100C7000950720F079F4A6F50C940C070EF4E09596
:100C80000B2EBA2FA02D0B01B90190010C01CA0146
:100C9000A0011124FF27591B99F0593F50F4503EF1
:100CA00068F11A16F040A22F232F342F4427585FE3
:100CB000F3CF469537952795A795F0405395C9F7FB
:100CC0007EF41F16BA0B620B730B840BBAF09150B3
:100CD000A1F0FF0FBB1F661F771F881FC2F70EC052
:100CE000BA0F621F731F841F48F487957795679525
:100CF000B795F7959E3F08F0B0CF9395880F08F011
:100D00009927EE0F979587950895E89409C097FB6A
:100D10003EF490958095709561957F4F8F4F9F4FD2
:100D20009923A9F0F92F96E9BB279395F695879516
:100D300077956795B795F111F8CFFAF4BB0F11F4D9
:100D400060FF1BC06F5F7F4F8F4F9F4F16C0882380
:100D500011F096E911C0772321F09EE8872F762FB6
:100D600005C0662371F096E8862F70E060E02AF0F7
:100D70009A95660F771F881FDAF7880F96958795E3
:100D800097F9089597F99F6780E870E060E008950B
:100D90009FEF80EC089500240A9416161706180693
:100DA0000906089500240A9412161306140605066F
:100DB0000895092E0394000C11F4882352F0BB0F00
:100DC00040F4BF2B11F460FF04C06F5F7F4F8F4F63
:100DD0009F4F089557FD9058440F551F59F05F3F9E
:100DE00071F04795880F97FB991F61F09F3F79F04D
:100DF00087950895121613061406551FF2CF4695CF
:100E0000F1DF08C0161617061806991FF1CF869550
:100E10007105610508940895E894BB276627772734
:100E2000CB0197F908950E948A0708F48FEF08957F
:100E30000E942B070C94D9060E94CB0638F00E9422
:100E4000D20620F0952311F00C94C2060C94C8062B
:100E500011240C940D070E94EA0670F3959FC1F3CC
:100E6000950F50E0551F629FF001729FBB27F00D58
:100E7000B11D639FAA27F00DB11DAA1F649F6627AD
:100E8000B00DA11D661F829F2227B00DA11D621FFC
:100E9000739FB00DA11D621F839FA00D611D221FB6
:100EA000749F3327A00D611D231F849F600D211D9A
:100EB000822F762F6A2F11249F5750409AF0F1F01D
:100EC00088234AF0EE0FFF1FBB1F661F771F881F86
:100ED00091505040A9F79E3F510580F00C94C206F6
:100EE0000C940D075F3FE4F3983ED4F38695779515
:100EF0006795B795F795E7959F5FC1F7FE2B880F2C
:100F0000911D9695879597F908950E948A07880BF9
:100F1000990B0895990F0008550FAA0BE0E8FEEF12
:100F200016161706E807F907C0F012161306E407AD
:100F3000F50798F0621B730B840B950B39F40A26A6
:100F400061F0232B242B252B21F408950A2609F484
:100F5000A140A6958FEF811D811D0895EE0FFF1F03
:100F60000590F491E02D0994F894FFCF0000000063
:0E0F70003E039E02CB028B03FC02DA02EE026D
:107E0000112484B714BE81FFF0D085E080938100F7
:107E100082E08093C00088E18093C10086E0809377
:107E2000C20080E18093C4008EE0C9D0259A86E02C
:107E300020E33CEF91E0309385002093840096BBD3
:107E4000B09BFECF1D9AA8958150A9F7CC24DD24C4
:107E500088248394B5E0AB2EA1E19A2EF3E0BF2EE7
:107E6000A2D0813461F49FD0082FAFD0023811F036
:107E7000013811F484E001C083E08DD089C08234E0
:107E800011F484E103C0853419F485E0A6D080C0E4
:107E9000853579F488D0E82EFF2485D0082F10E0AE
:107EA000102F00270E291F29000F111F8ED06801E7
:107EB0006FC0863521F484E090D080E0DECF843638
:107EC00009F040C070D06FD0082F6DD080E0C81688
:107ED00080E7D80618F4F601B7BEE895C0E0D1E017
:107EE00062D089930C17E1F7F0E0CF16F0E7DF06D8
:107EF00018F0F601B7BEE89568D007B600FCFDCFD4
:107F0000A601A0E0B1E02C9130E011968C91119780
:107F100090E0982F8827822B932B1296FA010C0160
:107F200087BEE89511244E5F5F4FF1E0A038BF0790
:107F300051F7F601A7BEE89507B600FCFDCF97BE46
:107F4000E89526C08437B1F42ED02DD0F82E2BD052
:107F50003CD0F601EF2C8F010F5F1F4F84911BD097
:107F6000EA94F801C1F70894C11CD11CFA94CF0C13
:107F7000D11C0EC0853739F428D08EE10CD085E9AC
:107F80000AD08FE07ACF813511F488E018D01DD067
:107F900080E101D065CF982F8091C00085FFFCCF94
:107FA0009093C60008958091C00087FFFCCF809118
:107FB000C00084FD01C0A8958091C6000895E0E648
:107FC000F0E098E1908380830895EDDF803219F02E
:107FD00088E0F5DFFFCF84E1DECF1F93182FE3DFCA
:107FE0001150E9F7F2DF1F91089580E0E8DFEE27F6
:047FF000FF270994CA
:027FFE00040479
:00000001FF
